S024000062745F736F635F68656172745F6D6F6E69746F725F62726432363031622E733337BA
S31508012000C00A002051360108E3310308E331030809
S315080120103D4B0308E3310308E3310308E3310308C1
S31508012020E3310308E3310308E3310308E331030825
S31508012030E331030820F3030833300308E3310308C7
S31508012040E3310308E3310308E3310308E331030805
S31508012050E3310308E3310308E3310308E3310308F5
S31508012060E3310308E3310308E3310308D9300108F2
S3150801207025310308E3310308E3310308E331030893
S31508012080E3310308E3310308E3310308E3310308C5
S31508012090E331030875410108E3310308E331030815
S315080120A0E3310308F1420108CD420108E33103088F
S315080120B0E3310308D90A0308BD14030825E5030813
S315080120C021E50308A50C030831E5030829E50308FA
S315080120D0951403082DE50308FD1403086115030883
S315080120E0E3310308E3310308E3310308E331030865
S315080120F091470308E3310308E3310308E331030891
S31508012100E3310308E3310308E3310308E331030844
S31508012110E3310308E3310308E3310308E331030834
S31508012120E3310308E3310308E3310308E331030824
S31508012130E3310308E3310308E3310308E331030814
S31508012140E3310308E3310308E3310308CB4C030801
S3150801215079F30208E331030861E2030867E2030839
S31508012160E3310308E3310308E3310308E3310308E4
S31508012170013800D0FCE7704770B505463E4C8AB079
S3150801218020B10023008823600DF0C4FD3B482BF0E5
S315080121909AFD3B4E3B4B304633603B4B736026F012
S315080121A05AFD0021304618F087FA31A3D3E90023F6
S315080121B0A062C4E9062326F056FDD4E9062319438D
S315080121C010434FF0FF33C4E90601CDE900014FF092
S315080121D0FF32A06A2BF0BEFD02224FF0FF31A06A42
S315080121E02BF0BDFD01200DF055FB4FF400730022C5
S315080121F02649A06A2BF009FEB0F5007F36D10023E7
S315080122009422CDE9073309933C23CDE9033205939B
S315080122109623A06A03A9069318F09CFB25B3287C8C
S315080122200DF0D0FF0546E0B9A06A2BF0CFFE0DF000
S3150801223071FF0DF011FB20B14FF4807000210BF0F6
S315080122401BFB0DF019FB20B14FF4006000210BF0C8
S3150801225013FB012018F084FA0D4A0E49A06A26F0EC
S31508012260F8FC28460AB070BDFF20D9E70725F8E72C
S3150801227009D5015520000000D80F0020690345EC57
S31508012280C42500206DFF0108B8250020B8230020C9
S31508012290FB8B03083B8C030810B5054C237833B92F
S315080122A0044B13B1044800E000BF0123237010BD9D
S315080122B03012002000000000A449040808B5034BA9
S315080122C01BB10349034800E000BF08BD0000000038
S315080122D034120020A4490408A3F5803A704700BFC8
S315080122E0174B002B08BF134B9D46FFF7F5FF00213F
S315080122F08B460F461348144A121A2CF066F90E4BF0
S31508012300002B00D098470D4B002B00D09847002092
S31508012310002104000D000D48002802D00C4800E0F9
S3150801232000BF1FF02FFF2000290020F076FE1FF0C6
S3150801233015FF00BF000008000000000000000000B3
S31508012340C00A0020700F0020282C00200000000081
S315080123500000000010B41449144B0A781B789A42FD
S3150801236016D3D21A0A7012480278934214D8D21A8E
S315080123700270104C2278934212D8D31A237002782D
S315080123800D482378097800685DF8044B20F0C9BF29
S31508012390002AE8D00022E5E7002AEAD00022E7E78A
S315080123A0002AECD00023E9E7F22A0020F02A0020CF
S315080123B0F12A0020EF2A002030F203082DE9F34123
S315080123C0484DDFF8588120F0F9FE20F0F8FE46491D
S315080123D0286822F02DFA454E98F8003036F8130091
S315080123E023F02BFD044620F0E9FE20F0E8FE98F8DC
S315080123F000203F4936F812202868A3B222F018FABD
S31508012400002C62D101A823F040FD044620F0D6FE37
S3150801241020F0D5FEBDF8043036492868A2B222F06C
S3150801242007FA002C51D1344F344E3B7836F8130055
S3150801243023F049FD044620F0C1FE20F0C0FE3A789B
S315080124402F4936F812202868A3B222F0F1F9002C98
S315080124503BD10DF1060023F072FD0446002620F05B
S31508012460ADFE20F0ACFE2749A2B2BDF806302868B9
S3150801247022F0DEF9244B1E7020F0A0FE20F09FFE0C
S315080124802249286822F0D4F9214B1B78EBB198F838
S3150801249000303A781B0102F0030203F030031343BC
S315080124A0314601228DF8033020200DF1030310F087
S315080124B08BFD064620F082FE20F081FE9DF8032062
S315080124C014492868B3B222F0B3F920F077FE20F058
S315080124D076FE11492868A2B222F0AAF9204602B06E
S315080124E0BDE8F0819C130020D0E803087AEE0308C2
S315080124F0EBE8030814E90308F52A002082EE03082D
S315080125004BE9030874E90308F32A0020ABE9030839
S31508012510EE2A0020E4E9030821EA0308F42A002048
S315080125202DE9F04186B020F049FE20F048FE6B4BBC
S315080125306B4C1A68DFF8FC81511C196020686949DF
S3150801254022F076F9D8F80030002B38D020F036FE84
S3150801255020F035FE6449206822F06AF9634B0021B0
S31508012560186808F06DF8054620F028FE20F027FEC9
S315080125705F492068AAB222F05BF96DB9022008F01A
S3150801258007F9054620F01AFE20F019FE02225949DC
S315080125902068ABB222F04CF920F010FE20F00FFEB5
S315080125A055492068AAB222F043F9C8F80050002D0F
S315080125B040F08980FFF702FFC8F8000083E068460B
S315080125C008F05AF8C8F8000020F0F8FD20F0F7FDE9
S315080125D0B8F800204949206822F02AF9D8F80030CD
S315080125E0002B70D1464E6D4637460FCD0FC795E87D
S315080125F00300082387E80300424F3B70337D9A1D89
S31508012600D2B2052A02D808333B7001E0012BFBD967
S31508012610B37B3D4D032B08D1B37A33B1338923B14B
S315080126201D2B53D84FF4FA632B6020F0C7FD20F019
S31508012630C6FD3A78354902EB420302EB8302344B75
S3150801264020681A4422F0F4F820F0B8FD20F0B7FD0E
S31508012650B27B304B02EB820203EB42022E49206821
S3150801266022F0E6F820F0AAFD20F0A9FDB27A2B495E
S31508012670206822F0DDF820F0A1FD20F0A0FDB28946
S315080126802749206822F0D4F820F098FD20F097FD1C
S3150801269032892449206822F0CBF820F08FFD20F0FA
S315080126A08EFD2A682049206822F0C2F820F086FDAE
S315080126B020F085FD1D49206822F0BAF81C4B1B78CD
S315080126C0002B7FF477AF06B0BDE8F081F02B96BFFB
S315080126D04EF66022FA23B2FBF3F3A5E7F4120020C3
S315080126E09C13002043EA030862EA0308DC0A002077
S315080126F078EA030894EA0308B8EA0308D5EA03085E
S31508012700A41200209F0D0020C00A0020F3EA030846
S3150801271005EE03088AEE0308FEEA030806EB03083A
S3150801272010EB03081AEB030822EB0308E1E9030897
S31508012730F32A0020C40A0020F0B5554C85B0554847
S3150801274006F01EFE20F03AFD20F039FD52492068B8
S3150801275022F06EF8514B524A18685249524B0028DA
S315080127607ED0FF201870107008700A274F4E1B780C
S3150801277030681278B0FBF7F54FF48070B0FBF5F0CE
S315080127804B4D0130287000254A480978006820F029
S31508012790C8FD2B463946484ACDE900553D4806F05D
S315080127A0CBFE00952B463168444A4548454E00F014
S315080127B089FD20F003FD20F002FD4349206822F03F
S315080127C037F8337823B302238DF80C303F4B0021B9
S315080127D09A7B1B89032A04BF06228DF80C20FF2B3E
S315080127E028BFFF2302228DF80D301B2003AB10F002
S315080127F0EBFB0546ADB220F0E1FC20F0E0FC9DF8CC
S315080128000D309DF80C2032492068009522F010F809
S3150801281020F0D4FC20F0D3FC2E49206822F008F8D9
S315080128203378DBB102AD03AB0222002100951B20F0
S3150801283010F098FB2A4602211B2010F0F3FB0546EF
S31508012840ADB220F0BBFC20F0BAFC9DF809309DF82A
S31508012850082021492068009521F0EAFF05B0F0BD5E
S315080128601A4DAE7B032E0DD1AE7A2EB12D891DB12F
S31508012870FF251870157077E7FF2010700870002083
S31508012880187072E7FF2518700D7010706DE700BF9C
S315080128909C1300204C1200202DEB0308C40A0020CB
S315080128A0F12A0020F22A0020EF2A0020C00A00207F
S315080128B0F02A002030F203085523010839270108B8
S315080128C06C120020EE2A002041EB0308A412002016
S315080128D078EB0308B8EB0308EBEB030813B5124CC6
S315080128E020F06CFC20F06BFC1049206821F0A0FF59
S315080128F020F064FC20F063FC0D49206821F098FF64
S3150801290000210C48FFF70CFE01234FF4FA710093DE
S31508012910094A0023074800F0D5FC0021074802B000
S31508012920BDE81040FFF708BF9C13002020EC030800
S3150801293048EC0308BC120020212501086C1200206E
S315080129407FB50368AE4A23F47F4323F00703934216
S31508012950044600F07D810AD8A2F51022934226D0BA
S3150801296002F5A022934200F0D38004B070BDA54AB7
S31508012970934200F0D98002F101729342F5D1B0F881
S3150801298005301B2BF1D1A04D20F018FC20F017FCC7
S315080129909E49286821F04CFF2389DB0740F12A81EB
S315080129A020F00CFC20F00BFC99492868B7E00122BD
S315080129B0984B954C984E1A7020F000FC20F0FFFBBE
S315080129C09649206821F034FF304610F057FA05463B
S315080129D008B39349206821F02BFF9249206821F01A
S315080129E027FF20F0EBFB20F0EAFB8F4B8F4A009381
S315080129F08F49DA23206821F01BFF8E492B468E4A20
S31508012A00206821F015FF284600F064FD8B492068EF
S31508012A1021F00EFFFEE70221307810F069FA05462B
S31508012A2008B37F49206821F003FF7E49206821F019
S31508012A30FFFE20F0C3FB20F0C2FB7B4B7B4A0093D1
S31508012A407B49DE23206821F0F3FE7A492B467A4A30
S31508012A50206821F0EDFE284600F03CFD7749206804
S31508012A6021F0E6FEFEE7A0220090034611463078E3
S31508012A7010F01CFA054608B36949206821F0D8FE0A
S31508012A806849206821F0D4FE20F098FB20F097FBD6
S31508012A90654B664A00936649E523206821F0C8FE1E
S31508012AA064492B46644A206821F0C2FE284600F094
S31508012AB011FD6249206821F0BBFEFEE7022130784C
S31508012AC010F02AFA0546002800F088805449206843
S31508012AD021F0AEFE5349206821F0AAFE20F06EFBD4
S31508012AE020F06DFB504B514A00935149E823206869
S31508012AF021F09EFE4F492B464F4A206821F098FE49
S31508012B00284600F0E7FC4D49206821F091FEFEE7D2
S31508012B1020F054FB20F053FB3B4B4949186804B09D
S31508012B20BDE8704021F084BE374C3B4E20F046FB91
S31508012B3020F045FB4349206821F07AFE02213078CE
S31508012B4010F0D6F9054608B33549206821F070FE1C
S31508012B503449206821F06CFE20F030FB20F02FFB71
S31508012B60314B324A00933249FA23206821F060FE3C
S31508012B7030492B46304A206821F05AFE284600F093
S31508012B80A9FC2E49206821F053FEFEE70221307880
S31508012B9010F0C2F9054608B32149206821F048FE1C
S31508012BA02049206821F044FE20F008FB20F007FBAD
S31508012BB01D4B1E4A00931E49FE23206821F038FE4C
S31508012BC01C492B461C4A206821F032FE284600F093
S31508012BD081FC1A49206821F02BFEFEE720F0EEFA67
S31508012BE020F0EDFA2A461849206804B0BDE870407D
S31508012BF021F01EBE20F0E2FA20F0E1FA1349D4E6EC
S31508012C00A0000A00A00006019C13002029ED030874
S31508012C1075ED0308EE2A00209E0D002055EC0308E9
S31508012C20E2E9030873EC0308F6ED030878EC0308F8
S31508012C3081EC030890EC03088DEC0308A5EC030866
S31508012C40E1EC030805ED0308B6EC030889ED030872
S31508012C50B0F80550202D7FF488AE164C20F0AEFA58
S31508012C6020F0ADFA1449206821F0E2FD0DF10B03BD
S31508012C70009301220021284603AB10F073F90028BE
S31508012C807FF473AE9DF80B300C4DC3F301122A7015
S31508012C9001220B4E03F0030333700A4B1A7020F01E
S31508012CA08DFA20F08CFA33782A780749206821F0C2
S31508012CB0BFFD5AE69C1300209EED0308F42A002066
S31508012CC0F52A0020F32A0020E6ED030810B504468C
S31508012CD020F0A6FA0B4B9C4206D00B4B9C4210D116
S31508012CE001280ED1094A02E001280AD1084A1378B7
S31508012CF00133DBB2032B00D9002313700122054BE4
S31508012D001A7010BD00F2030818F20308F52A00200C
S31508012D10F42A0020F32A002030B503687F4A23F4F9
S31508012D207F4323F00703934289B040F0F4800822D9
S31508012D30002112207A4B10F047F9044610B3794D59
S31508012D407949286821F074FD7849286821F070FDD1
S31508012D5020F034FA20F033FA754B764A0093764917
S31508012D603D23286821F064FD74492346744A28687E
S31508012D7021F05EFD204600F0ADFB7249286821F07E
S31508012D8057FDFEE70146032214206F4B10F01CF98C
S31508012D90044610B3634D6449286821F049FD634927
S31508012DA0286821F045FD20F009FA20F008FA604B61
S31508012DB0604A009360494B23286821F039FD5F4931
S31508012DC023465F4A286821F033FD204600F082FB3E
S31508012DD05C49286821F02CFDFEE7014605221620EC
S31508012DE05A4B10F0F1F8054610B34E4C4E4920687F
S31508012DF021F01EFD4D49206821F01AFD20F0DEF96B
S31508012E0020F0DDF94A4B4B4A00934B495923206878
S31508012E1021F00EFD49492B46494A206821F008FD53
S31508012E20284600F057FB4749206821F001FDFEE7D7
S31508012E300DF10F0104A810F00BF9044610B3394D32
S31508012E403949286821F0F4FC3849286821F0F0FC52
S31508012E5020F0B4F920F0B3F9354B364A00933649D8
S31508012E606423286821F0E4FC34492346344A286857
S31508012E7021F0DEFC204600F02DFB3249286821F0BE
S31508012E80D7FCFEE79DF8153001468DF818309DF8F8
S31508012E90143008228DF819309DF8133018208DF852
S31508012EA01A30FF238DF81B30FE238DF81C309DF850
S31508012EB012308DF81D309DF811308DF81E309DF8B1
S31508012EC010308DF81F3006AB10F07EF8054610B3AA
S31508012ED0144C1549206821F0ABFC1449206821F0EF
S31508012EE0A7FC20F06BF920F06AF9114B114A0093FF
S31508012EF011497423206821F09BFC10492B46104A7E
S31508012F00206821F095FC284600F0E4FA0D4920686E
S31508012F1021F08EFCFEE709B030BD00BFA00001001C
S31508012F20B2EE03089C130020E2E9030873EC0308D8
S31508012F30EDEE0308BBEE030881EC030890EC0308E9
S31508012F408DEC0308A5EC0308E3EE0308E7EE030896
S31508012F5010B5274C01F002FF02F01EF9236F23F08A
S31508012F60070343F00303236720F063FA214B00208C
S31508012F709B6ADB015EBF4FF480321F4B9A62D4F81D
S31508012F80203123F0070343F00203C4F82031D4F8B3
S31508012F90283123F0070343F00203C4F82831D4F893
S31508012FA0403123F0030343F00203C4F84031D4F857
S31508012FB0603123F0030343F00203C4F86031D4F807
S31508012FC0403223F0030343F00203C4F84032D4F835
S31508012FD0003223F0070343F00203C4F80032D4F8A1
S31508012FE0083223F0070343F00203C4F8083210BD80
S31508012FF0008000500040005A0060005A08B53A2087
S31508013000012101F067FCBDE80840014800F0E2BC77
S31508013010C80A002030B51D4D9DB008AC0FCD0FC4B0
S3150801302095E80F0084E80F002C22002111A82BF047
S31508013030CCFA174B10221093562312930523012419
S31508013040159306230DEB0200002117938DF84540D1
S315080130502BF0BBFA4FF470200E4B08AACDE90203F8
S315080130600B238DF810300C238DF811300A4B02A969
S31508013070059320230693094B0948009310AB8DF855
S315080130801D4005F081F81DB030BD00BFE0F1030811
S315080130900000015B3C00015BF62A0020F8120020C3
S315080130A070130020022905D8034B1B68186808B15C
S315080130B0436A1847704700BFE80A002008B5044963
S315080130C0044805F0A1FDBDE80840FFF7A3BF00BF0E
S315080130D0E00A002068130020014821F0E0BB00BF88
S315080130E070130020014B1A6A1868104770130020E4
S315080130F008B5044820F08FF8BDE80840024820F0DA
S315080131008AB800BF00F2030818F20308014820F044
S31508013110B0B800BF30F203087FB500240368464AF9
S3150801312023F47F4323F00703934205468DF80840AD
S315080131308DF809408DF80A408DF80B408DF80C4042
S315080131408DF80D406DD002F18272934271D1B0F8BB
S315080131500530232B6DD1FF2304A91A4611E9030073
S3150801316020F025F8012814BF41F2FC14334B4FF027
S31508013170230108BF187004F0FC0228790FF03AFF02
S31508013180064610B32E4C2F49206821F051FB2E49D3
S31508013190206821F04DFB20F011F820F010F82B4B98
S315080131A02B4A00932B494E23206821F041FB2A49DB
S315080131B033462A4A206821F03BFB304600F08AF95B
S315080131C02749206821F034FBFEE71C4B1B78002BAE
S315080131D02FD028790FF0B4FE054650B3184C19497B
S315080131E0206821F025FB1849206821F021FB1FF0F2
S315080131F0E5FF1FF0E4FF154B154A009315495423C3
S31508013200206821F015FB14492B46144A206821F041
S315080132100FFB284600F05EF91149206821F008FBEA
S31508013220FEE7064B1B7823B104B0BDE8704021F0D8
S3150801323084BD04B070BD00BFA0000601162B002096
S315080132409C130020E2E9030873EC0308C3F20308A0
S3150801325050F2030881EC030890EC03088DEC03088F
S31508013260A5EC0308002209490B684BB1834204D136
S31508013270836A4AB19362012070471A469B6AF4E74A
S315080132800028F5D0184670470B60F4E79413002020
S3150801329010B5044690B106F073F82046FFF7E2FF31
S315080132A058B194F82C0040B120F0DFF8044A1368AD
S315080132B0013B136020F0DFF8002010BD2220FCE757
S315080132C0981300202DE9F04F85B00546914698469A
S315080132D00E469DF8387009B9002F62D12846FFF7C6
S315080132E0D7FF044600283CD185F82C00686306F010
S315080132F05FF9864239D906F0CDF840F2E7318C46B6
S315080133002146E6FB00C14FF47A72604600231EF09F
S315080133108DFD4FF0FF32002383468A461EF086FD57
S315080133204FF0FF32E8860023584651461EF07EFDCF
S315080133302B4611462846CDE900441B4A21F074FC68
S31508013340044670B9194AC5E90898136885F82D70B5
S315080133502E6323B31A469B6A002BFBD19562002381
S31508013360AB62204605B0BDE8F08F47B12B46314622
S315080133702846CDE900440C4A06F0DEF8E0E7304677
S3150801338003A906F0BBF804460028EAD12B462846CD
S31508013390CDE90077044A039921F022FCD0E71560AC
S315080133A0DDE72124DDE700BFB133010894130020CE
S315080133B091F82C3013B50C4683B98B8ECA8E93427D
S315080133C00ED243B9CDE9003320460B46104A4FF0D9
S315080133D0FF3121F0E9FBA38E0133A38602B010BDAC
S315080133E052B191F82D307BB101230093D1E908231D
S315080133F02046096BFFF766FF0123064A84F82C303D
S31508013400136801331360E9E7084605F0B9FFF3E7E6
S31508013410B13301089813002070B5104D2B681BB104
S3150801342000260F4B1C6804B970BD94F82C3093B173
S3150801343020F01BF82B6884F82C60013B2B6020F0E8
S315080134401AF894F82D3013B92046FFF70BFFD4E983
S31508013450083120469847A46AE5E700BF981300207B
S3150801346094130020034B1B68002B0CBF012004207A
S31508013470704700BF98130020024B1868B0FA80F015
S315080134804009704798130020012208B5074B1A70A6
S315080134900022074B1A700422064B1A701F22064B8C
S315080134A01A7004F009FE054B186008BDA00D00202E
S315080134B0172B0020A10D0020A20D00209C1300202F
S315080134C0024B0349186821F0B3B900BF9C130020C9
S315080134D0E3F2030870B50C4C0C490646206821F046
S315080134E0A7F904F0E9FD0546206804F0D9FD304640
S315080134F0FFF7E6FF284604F0D3FD20680449BDE836
S31508013500704021F095B900BF9C130020E5F203082D
S31508013510E7F203082DE9F041484C8EB0264601AD85
S315080135200FCE0FC5336814342B6006AD0FCC0FC50B
S3150801353094E80F0085E80F0001213A2001F0CAF945
S315080135400121572001F0C6F94FF480733C4EADF8BE
S315080135501C303C4B3046039301A906AB059302F098
S315080135608FF9012304220321022002F099FA02218C
S3150801357000230846012202F093FA01230422194680
S31508013580022002F08DFA042200210123022002F012
S3150801359087FA2D4C2D4B0125C4F8C8344FF0021378
S315080135A0C4F8C43403F58033C4F8CC341C2304F5B9
S315080135B00058C4F8B4344FF4487006F069F904F5B4
S315080135C080571420C8F8A05006F062F92320C7F8DE
S315080135D0A05006F05DF9B9213046C8F8A0501FF091
S315080135E097FF002303211A460220C7F8A05002F0CC
S315080135F057FA002302211A46084602F051FA2B46C9
S3150801360029460022022002F04BFA00222B461146D7
S31508013610022002F045FA304601F064FF00215720E6
S31508013620C4F8C814C4F8C414C4F8CC14C4F8B4143F
S3150801363001F050F90EB0BDE8F08100BFECF20308C5
S3150801364000000A50E070720000C003500200010039
S3150801365008B500F02DF8124B12498B4212D30020FF
S31508013660114B12498B4218D3FEF73AFE186850F8E7
S315080136702240586840F82240013298688242F5D3C0
S315080136800C33EAE70022F8E71C6844F82200013205
S315080136905C68A242F8D30833E4E70022F8E700BFE2
S315080136A0AC490408B8490408B8490408B8490408E3
S315080136B04FF480414FF0FF30114B124A10B59A6012
S315080136C0D3F8882042F47002C3F888200E4A91661E
S315080136D00E4901F5005210660D4850660220C3F8DE
S315080136E0D000BFF34F8FBFF36F8F01244FF44033E0
S315080136F00848C0F88041D36004600B6110BD00BF63
S3150801370000ED00E000200108009000500080004410
S31508013710F7FF370000E100E0014B1868704700BF6A
S31508013720600B0020084B1B6F03F00703022B04D024
S31508013730032B05D0012B05D0FEE7044B186870470B
S31508013740034BFBE70348704700800050600B0020DD
S31508013750640B0020002D310108B5FFF7E3FF054B87
S315080137601B6FC3F303330133B0FBF3F0024B18604D
S3150801377008BD00BF008000505C0B00200048704760
S3150801378000B4C404014B1868704700BF640B0020DD
S31508013790054B1860054B1B6F03F00703032B01D17B
S315080137A0FFF7DABF704700BF640B002000800050A6
S315080137B000487047002D31014FF0B4439868C0F3B3
S315080137C004400C2822D8DFE800F009212121212113
S315080137D0071719211B1D1F000F4870479B6803F027
S315080137E04073B3F1807F13D0B3F1007F12D00B4A37
S315080137F0002B08BF104670470948704709487047AB
S3150801380009487047094870470948704700207047BA
S315080138100848704708487047405DC60000093D00E2
S315080138200024F400C0EA210180BA8C010048E801AD
S31508013830005A620280841E0040420F00014B18683C
S31508013840704700BF680B00204FF000639B6A10B5F4
S3150801385003F17842B2F5903F0ED21968094A9142AE
S315080138600AD1094C227812F0FD0F08D1DB69984775
S3150801387008B90123237010BD4FF48170FBE70020BE
S31508013880F9E700BF07B0CD5E182B00204FF00053B3
S31508013890074A1A60BFF34F8F0649074BCA6802F4F5
S315080138A0E0621343CB60BFF34F8F00BFFDE700BF54
S315080138B002020FF000ED00E00400FA0505490A6866
S315080138C01318054883428CBF4FF0FF320B60104630
S315080138D0704700BF6C0B00200000042010B40A6872
S315080138E01378022B11D014203023147913FB040307
S315080138F007481B585079C340DB4303F00103137093
S3150801390008465DF8044BFFF7E1B95DF8044B7047CB
S3150801391030C0035037B50468012105463A2000F046
S31508013920D9FF002301226179207902F0B9F814221E
S315080139303023217913FB01230E4A9B586279D34020
S31508013940DB4303F001032370A379022B0ED100F0A8
S3150801395067FC2A460849607900F08CFC0123024677
S3150801396061792079CDE9003302F042F8002003B0ED
S3150801397030BD00BF30C00350DD3801080268137836
S31508013980022B24D014213023107913FB001310497C
S315080139905B585179CB40917903F00103012912D182
S315080139A0508843EA40034FF6E07063F03F039BB249
S315080139B0834202D11170538070474FF6DF718B42F3
S315080139C0F9D10021F6E711B983F0010313707047A5
S315080139D030C003502DE9FF4103680446B3F1B64FE1
S315080139E004D0354A934251D12F2000E02E200121DF
S315080139F000F070FF01230A226179207902F050F85C
S31508013A0001230A22E179A07902F04AF80927012659
S31508013A102A4D4FF030082279637908FB025206FADB
S31508013A2003F302F501521360642005F031FF23798F
S31508013A30627908FB035306FA02F203F582536420FE
S31508013A401A6005F025FF013FE3D12068B0F1B64FB2
S31508013A501FD10323C5F8E8346279237943EA02437F
S31508013A60C5F8EC34E279A37943EA0243C5F8F034A0
S31508013A7040F20113ADF80030E36869460293A36882
S31508013A800193237C8DF80C3002F086F804B0BDE86A
S31508013A90F081094B9842EBD10323C5F8F8346279D2
S31508013AA0237943EA0243C5F8FC34E279A37943EA68
S31508013AB00243C5F80035DBE70080065000C0035015
S31508013AC038B5054602F096F9044C012801D1013CA6
S31508013AD000D138BD284602F081F8F6E7E1930400E3
S31508013AE00123017A0269114803FA01F1824216D0CB
S31508013AF000F5804082420DD00D4B9A4211D003F554
S31508013B0080439A420FD003F580439A420CBF04239F
S31508013B104FF0FF33074AB4335B01D1507047002396
S31508013B20F8E70223F6E70323F4E700BF0080045011
S31508013B300000055000C003500123017A02691148AB
S31508013B4003FA01F1824217D000F5804082420DD076
S31508013B500D4B9A4212D003F580439A4210D003F5D1
S31508013B6080439A420CBF04234FF0FF33074A03F5FB
S31508013B709A735B01D15070470023F7E70223F5E7F3
S31508013B800323F3E7008004500000055000C00350EA
S31508013B90634B30B50360634B05694360624B04466A
S31508013BA09D4289B04BD040D8A3F500439D4248D0E9
S31508013BB003F580439D4214BF80252525012128460A
S31508013BC000F088FE0D22002168462AF0FEFC032338
S31508013BD002228DF80630012320698DF8012000F5AF
S31508013BE080528DF805301363504B98422DD003F55A
S31508013BF08043984229D003F58043984228D003F59B
S31508013C008043984224D04FF6FF73494A904218BF21
S31508013C100023A269012A01D99A421CD92846002102
S31508013C2000F058FE012009B030BD424B9D420AD032
S31508013C3003F580439D4214BF80252825BEE7262526
S31508013C40BCE72425BAE72725B8E74FF0FF33E0E7B5
S31508013C504FF6FF73DDE7A37B6A46003B18BF0123D6
S31508013C60217A8DF80A301FF018FD01213A2000F05B
S31508013C7031FE0422A37BA17A607A01F011FF226941
S31508013C802A4B9A4244D003F580439A4242D003F51F
S31508013C9080439A4240D003F580439A423ED0244855
S31508013CA02549A3F5BC33FC3B824218BF0B46A07AD3
S31508013CB0627A217A42EA004243F82120606930B1EA
S31508013CC0284600F023FE6369B0FBF3F00138A369C7
S31508013CD01022013BB0FBF3F05843984238BF18460F
S31508013CE0256900212B6BE8610DEB02002AF06DFCBA
S31508013CF00123284604A98DF810301FF076FC2046CA
S31508013D00A1891FF0BCFA2046FFF716FF00208AE7B3
S31508013D100A4BCCE70A4BCAE70A4BC8E70A4BC6E780
S31508013D207F320308793203080000055000800450E9
S31508013D30008005500040055064C6035084C60350F0
S31508013D40A4C60350C4C60350E4C603502DE9F04F78
S31508013D509A46564B85B01B7806460F461546DDF83A
S31508013D603C909DF844B0DDF85080002B00F08D8022
S31508013D70072A00F28C800E9B002B00F08880B9F18F
S31508013D80000F00F08480129BB3F5006F7FDC0128D9
S31508013D9002D1109B002B7AD0454B03EB05131B7BF5
S31508013DA0002B76D0434C1022002168462AF00DFCE0
S31508013DB004EB45141022002F59D1394620462AF022
S31508013DC004FC43F210036380BBF1000F03D1E378CF
S31508013DD043F00303E370374A0E9B02EB451CCCE91B
S31508013DE00193129B6901013BC3F30A009DF84C300C
S31508013DF0012E03F003034FEA836343EA001E535877
S31508013E002D48CDF800A000EA03004EEA00035350FE
S31508013E1041D113230CF1100ECCF80C309CE80F009D
S31508013E208EE80F006FF00301DCF81C20109B61F38C
S31508013E309F02012FCCF81C20CCF8143003D1CCF802
S31508013E401890CCF804300027194A290102EB05130A
S31508013E5042F80180159A28465A60694622469F60AB
S31508013E605E7302F067F8384605B0BDE8F08F0021A9
S31508013E7020462AF0AAFB4FF444736380BBF1000F76
S31508013E80A9D1E37843F03003A4E70C48ECE70C48E2
S31508013E90EAE70C48E8E7B8F1000FD4D19CF80230FC
S31508013EA068F304138CF80230CDE700BF192B002004
S31508013EB0A0130020201400200F80FFF3028000F0D9
S31508013EC0018000F0078000F038B5124B05461B78D3
S31508013ED0DBB1E0B11FF0C9FA0F4A00231146147B82
S31508013EE054B92B6001251A0101EB03131D738C507C
S31508013EF01FF0C1FA204638BD0133082B02F1100222
S31508013F00EDD11FF0B8FA0548F5E70548F3E7054886
S31508013F10F1E700BF192B0020A0130020048000F050
S31508013F20028000F0018000F013B51FF09EFA00230D
S31508013F300B4A147B7CB90133082B02F11002F8D124
S31508013F40019001F099FF074B01981C701FF093FA35
S31508013F50204602B010BD1FF08EFA0348F9E700BFEC
S31508013F60A0130020192B0020058000F00D4B10B579
S31508013F701B78044693B1072812D81FF076FA0A4B24
S31508013F8003EB04131A7B2AB100241C731FF073FA7E
S31508013F90204610BD1FF06FFA0448FAE70448F8E70F
S31508013FA00448F6E7192B0020A0130020068000F02C
S31508013FB0028000F0018000F0154B13B51868002344
S31508013FC001908DF804301FF050FA124B1C7824B179
S31508013FD01FF051FA104802B010BD01221A701FF0E5
S31508013FE04AFA0E4B01A81C731C7783F82C4083F8F8
S31508013FF03C4083F84C4083F85C4083F86C4083F876
S315080140007C4008238DF8073001F062FF2046E2E77D
S3150801401070F30308192B0020038000F0A013002079
S315080140200A4A08B512785AB107280BD8084A02EB8A
S3150801403000131B7B43B1002101F03CFF002008BDA2
S315080140400448FCE70448FAE70448F8E7192B002076
S31508014050A0130020028000F0018000F0078000F024
S315080140600A4A08B512785AB107280BD8084A02EB4A
S3150801407000131B7B43B1012101F01CFF002008BD81
S315080140800448FCE70448FAE70448F8E7192B002036
S31508014090A0130020028000F0018000F0078000F0E4
S315080140A00A4A08B5127852B107280AD8084A02EB13
S315080140B000131B7B3BB101F08BFF002008BD0548AF
S315080140C0FCE70548FAE70548F8E700BF192B002081
S315080140D0A0130020028000F0018000F0078000F0A4
S315080140E00D4B1B7893B1072812D889B10B4B03EBFB
S315080140F000131B7B73B10A4B1A6D012303FA00F0F7
S3150801410010401ABF00200B700870704705487047A9
S315080141100548704705487047192B0020A013002051
S3150801412000000450028000F0018000F0078000F0D2
S315080141300B4A10B512780C4662B107280CD859B14A
S31508014140084A02EB00131B7B43B101F053FF2070B1
S31508014150002010BD0448FCE70448FAE70448F8E7DC
S31508014160192B0020A0130020028000F0018000F026
S31508014170078000F02DE9F843174B1F6D5B6D1F4053
S3150801418000D5FEE701260025144CDFF85480DFF838
S315080141905490374217D02368C8F850609BB1A1687C
S315080141A0284601316268A1609847637B012B0AD1D1
S315080141B048B909EB45131A7B60F341021A731A7F52
S315080141C060F341021A770135082D4FEA460604F1D4
S315080141D01004DED1BDE8F88300000450A0130020C6
S315080141E0002004502014002070B5044601250B4E0A
S315080141F004B970BD94FAA4F0B0FA80F005FA00F398
S3150801420006EB001224EA03045368002BF0D0117B55
S3150801421011B191689847EBE79847E9E7201500201F
S3150801422008B5192000F0DAFF28B14FF00072074BE4
S31508014230C3F880211A601A2000F0D0FF28B14FF088
S315080142408062024BC3F880211A6008BD00E100E0D4
S3150801425038B505460C461FF008F90022044B03EB56
S3150801426005135C601A73BDE838401FF004B900BF36
S3150801427020150020F8B505460F4616461FF0F5F835
S31508014280104B05F0FC02D3F824140023EC1804F0B3
S315080142900304144321FA04FC1CF0010F07D001336F
S315080142A0042BF3D1FF241FF0E6F82046F8BDFF2CB6
S315080142B0F9D00122044B03EB0413C3E901761A73FF
S315080142C0F1E700BF00C0035020150020074BD3F8C3
S315080142D02404D3F8202403F50053104000F0553088
S315080142E020F05020C3F82004FFF77EBF00C003501A
S315080142F0074BD3F82404D3F8202403F500531040C0
S3150801430000F0AA3020F0A020C3F82004FFF76CBF04
S3150801431000C00350024B1968024B186815F0E0BD3E
S31508014320740B0020700B002037B5920004460D4629
S3150801433001922AF0BDFA431C0BD060B929462046E2
S31508014340019A2AF00BF90028044808BF002003B097
S3150801435030BD0348FBE70348F9E700BF10E000F06A
S3150801436021E000F024E000F013B5044601A801F0AD
S315080143707BFE9DF80630012223804FF480730020CE
S315080143806380054B9B680A3303F01F0302FA03F3A4
S31508014390636002B010BD00BF0080E00F10B504468F
S315080143A02AF08EFA431C15D0B0B90C4B20469B68EF
S315080143B00A3303F01F020123934023F00303234426
S315080143C0984201D1002010BD50F8042B0132F7D0D4
S315080143D00348F8E70348F6E70348F4E70080E00FE7
S315080143E00EE000F021E000F024E000F008B51FF02F
S315080143F035F8014B186008BD601D0020014B18688F
S315080144001FF030B8601D0020044BD3F88420D20673
S31508014410FBD4D3F88400C0F38110704700400050E4
S3150801442038B5104B0546D3F880300C4603F0030324
S31508014430022B0BD0032B0DD0012B0FD1FFF772F9ED
S315080144400E2305B1286004B1236038BDFFF7B4F91E
S315080144500723F6E7FFF760F90623F2E70023184674
S31508014460EFE700BF0080005038B5174B0546D3F873
S3150801447020310C4603F00703013B052B20D8DFE862
S3150801448003F0030B130F171BFFF746F9052305B1B5
S31508014490286004B1236038BDFFF774F90323F6E7F2
S315080144A0FFF78AF90723F2E7FFF782F90223EEE716
S315080144B0FFF732F90623EAE7FFF764F90423E6E78B
S315080144C000231846E3E700BF0080005038B5174BB4
S315080144D00546D3F828310C4603F00703013B052BA3
S315080144E020D8DFE803F003131B0F0B17FFF714F9A6
S315080144F0052305B1286004B1236038BDFFF70CF91F
S315080145000623F6E7FFF758F90723F2E7FFF73AF923
S315080145100323EEE7FFF736F90423EAE7FFF748F93D
S315080145200223E6E700231846E3E700BF00800050B0
S3150801453073B50D460021114B0191D3F8804106460A
S3150801454004F00304022C13D0032C0CD0012C13D134
S3150801455001A8FFF789FF10240EB1019B336005B14D
S315080145602C6002B070BDFFF727F907240190F3E725
S31508014570FFF71EF90190EFE70C46EDE700800050C2
S31508014580002337B50193154B0546D3F820320C465F
S3150801459003F00703013B032B1ED8DFE803F0020EE5
S315080145A01318002101A8FFF791FF12230DB1019AF3
S315080145B02A6004B1236003B030BDFFF7FDF8072375
S315080145C00190F3E71EF010FE0A230190EEE7FFF7CC
S315080145D035F909230190E9E70023E7E70080005050
S315080145E038B5104B0546D3F840310C4603F00303A2
S315080145F0022B0BD0032B0DD0012B0FD11EF0F4FD8E
S315080146000A2305B1286004B1236038BDFFF716F9FE
S315080146100923F6E71EF0EBFD0C23F2E70023184603
S31508014620EFE700BF00800050002337B50193164B12
S315080146300546D3F860320C4603F00703013B032B0A
S315080146401FD8DFE803F0020E1914002101A8FFF7AD
S315080146500BFF10230DB1019A2A6004B1236003B040
S3150801466030BD002101A8FFF7BBFF1123F2E7FFF7D1
S31508014670A3F807230190EDE7FFF79AF802230190C3
S31508014680E8E70023E6E700BF00800050002337B5BE
S315080146900193164B0546D3F894320C4603F00703EB
S315080146A0013B032B1FD8DFE803F0020E1914002182
S315080146B001A8FFF7D9FE10230DB1019A2A6004B1AA
S315080146C0236003B030BD002101A8FFF789FF11233C
S315080146D0F2E7FFF771F807230190EDE7FFF768F8AE
S315080146E002230190E8E70023E6E700BF00800050B7
S315080146F038B5134B0546D3F800320C4603F00703C9
S31508014700013B032B18D8DFE803F0020A0E121EF04C
S315080147106BFD0A2305B1286004B1236038BDFFF794
S315080147208DF80923F6E71EF062FD0C23F2E7FFF781
S3150801473013F80F23800AEDE700231846EAE700BFBE
S315080147400080005038B5134B0546D3F808320C469D
S3150801475003F00703013B032B18D8DFE803F0020A2D
S315080147600E121EF041FD0A2305B1286004B123602B
S3150801477038BDFFF763F80923F6E71EF038FD0C2369
S31508014780F2E7FEF7E9FF0F23800AEDE70023184653
S31508014790EAE700BF0080005038B5104B0546D3F84C
S315080147A040320C4603F00303022B0BD0032B0DD02A
S315080147B0012B0FD11EF018FD0A2305B1286004B19B
S315080147C0236038BDFFF73AF80923F6E71EF00FFD17
S315080147D00C23F2E700231846EFE700BF00800050DC
S315080147E038B5104B0546D3F860310C4603F0030380
S315080147F0022B0BD0032B0DD0012B0FD11EF0F4FC8D
S315080148000A2305B1286004B1236038BDFFF716F8FD
S315080148100923F6E71EF0EBFC0C23F2E70023184602
S31508014820EFE700BF00800050B0F5207F1FD009D800
S31508014830B0F5007F15D003D868B1B0F5C07F0AD0AE
S3150801484000200CE0B0F5607FFAD10B4BD3F880005D
S31508014850C0F3011003E0084B186FC0F303300130B1
S315080148607047054BD3F89000C0F30460F7E7024B95
S31508014870186FC0F38020F2E70080005002464FF41B
S315080148808030104B10B598660020FFF7CDFF5043D6
S3150801489041F671320C4BDC69DA635A6804F48034E8
S315080148A022F4401259B9094988428CBF4FF4801045
S315080148B00020104358600CB10022DA6310BD044988
S315080148C0F2E700BF0090005000000350005A620250
S315080148D0002D3101430905D0012B0DD0022B094BBF
S315080148E018BF002300F01F0041B103F580530122D0
S315080148F002FA00F018607047034BF3E703F500531B
S31508014900F5E700BF68800050648000501FB500219C
S3150801491080280446CDE9001100F0A58035D85E2827
S3150801492046D85E2844D8DFE800F0A2434343434310
S315080149304343434343434343434343434343434338
S3150801494043434343434343434343A2AAA2AAB9B9B0
S31508014950B9B9B9AAC34DD9714DAAAAAA43434343C2
S3150801496043434343AAAAAA79E3AA43434343434396
S3150801497043434343434343B9A2A2A2DE4D4DE888CC
S315080149805EBE434343434399A200B0F5B06F00F0BE
S315080149908F802DD8B0F5207F71D00CD8B0F5C07FA7
S315080149A065D0B0F5007F65D0B0F5807F00F08580D1
S315080149B0009804B010BDB0F5607F6AD00DD8B0F587
S315080149C0407FF5D1FEF7C8FE02464FF42070FFF787
S315080149D02BFFB2FBF0F0400847E0B0F5806F5DD0E1
S315080149E0B0F5A06FE4D100216846FFF7C9FDDFE7FE
S315080149F0B0F5106F77D016D8B0F5E06F78D00AD831
S31508014A00B0F5C06F6AD0B0F5D06FD1D10021684634
S31508014A10FFF76EFECCE7B0F5F06FC9D10021684605
S31508014A20FFF7DEFEC4E7B0F5406F3CD013D8B0F50A
S31508014A30206F62D0B0F5286FBAD10021314B0391AE
S31508014A40D3F8703203F00303012B02D103A8FFF751
S31508014A50C7FD039B3BE0B0F5486FA9D10021684625
S31508014A60FFF714FEA4E7FEF75DFE0090A0E7FEF748
S31508014A7073FEFAE7FEF756FE0246204604E0FEF705
S31508014A806BFE02464FF42070FFF7CEFEB2FBF0F044
S31508014A90EBE701A8FFF7C4FC019AEEE70021684697
S31508014AA0FFF7E2FC84E700216846FFF70FFD7FE781
S31508014AB000216846FFF73CFD7AE74FF0E0230291B3
S31508014AC01B695B0705D5FEF747FE0290029B00931B
S31508014AD06EE703A902A8FFF783FDF7E700216846F9
S31508014AE0FFF77EFD64E700216846FFF72BFE5FE7C7
S31508014AF000216846FFF750FE5AE700216846FFF78E
S31508014B0093FD55E70080005008B58020FFF7FEFEAB
S31508014B10034B98429EBF4FF48032024B1A6708BD79
S31508014B20005A620200A000501FB50023B0F5807F2D
S31508014B30019300F0C38064D85D2855D84C2807D85E
S31508014B402D2847D823282BD8019805B05DF804FBF2
S31508014B504D381028F8D801A353F820F0B34C0108B2
S31508014B60494B0108494B0108494B0108654C0108A5
S31508014B70494B0108494B0108394D0108834C010885
S31508014B80294C01082F4D0108494B0108494B0108D9
S31508014B90494B0108494B0108494B0108434D010896
S31508014BA024380928D0D801A353F820F0B34C0108BA
S31508014BB0B34C0108B34C0108B34C0108B34C0108C6
S31508014BC0494B0108A94C0108494B0108454C010804
S31508014BD0E94C01083D2800F082803E28B4D1002026
S31508014BE001A9FFF7D9FDAFE78028ADD15A4B1B6F55
S31508014BF003F00703013B032BA6D8DFE803F0535064
S31508014C00878FB0F5F06F6AD021D8B0F5B06F4BD069
S31508014C100FD8B0F5607F00F0858095D3B0F5806F29
S31508014C2047D0B0F5A06F8FD1002001A9FFF7A8FCE6
S31508014C308AE7B0F5D06F57D0B0F5E06FCFD0B0F5B1
S31508014C40C06F81D1002001A9FFF7CAFC7CE7B0F546
S31508014C50206F71D00BD8B0F5086F4AD0B0F5106F38
S31508014C607FF472AF002001A9FFF76CFD6CE7B0F580
S31508014C70406F5CD0B0F5486F63D0B0F5286F7FF40C
S31508014C8063AF0021344B0391D3F8703203F0030369
S31508014C90012B5BD0022B14BF0B46152300E005231D
S31508014CA0019351E70223FBE7002001A9FFF740FC26
S31508014CB04AE7002001A9FFF7D7FB45E702934FF022
S31508014CC0E0231B695B0705D5FEF746FD0D23039314
S31508014CD0039BE5E703A902A8FFF782FCF8E7002092
S31508014CE001A9FFF77DFD2FE7002001A9FFF700FDC8
S31508014CF02AE7194BD3F8003103F00303022B07D037
S31508014D00032B09D0012B0BD1FEF73CFD0323C7E783
S31508014D10FEF794FD0923C3E71EF064FA0823BFE7EB
S31508014D200123BDE7184601A9FFF77AFB0CE7002026
S31508014D3001A9FFF7CBFB07E7002001A9FFF774FCE0
S31508014D4002E7002001A9FFF7A1FCFDE603A8FFF78A
S31508014D5047FC1123A4E700BF008000504FF48012DE
S31508014D60034B5A664FF48032024B9A62704700BF72
S31508014D70009000500050005A08B5FFF7D5FE0928E3
S31508014D8011D00A38012811D84FF48002094B4FF681
S31508014D90FF705A6603F5D8335B6A13F0010F18BF23
S31508014DA04FF4FA7008BD044B1888FBE74FF6FF70FD
S31508014DB0F8E700BF009000508A0D002038B5044678
S31508014DC08020FFF7B1FE032800F083804FF480129C
S31508014DD0504B4FF0A0615A6645F60E034E4AC2F88B
S31508014DE080304E4B99624FF4803103F580539962B6
S31508014DF0916D11F48031FBD1D4E900031B0543EA17
S31508014E000063E07B0343207B43EA0043607B43EA7C
S31508014E100033A07B43EA801313619069D4E90453F4
S31508014E201B0643EA856300F000400343A07EE57E46
S31508014E300343207E43EA0043607E43EA00239361ED
S31508014E40E069136A00280CBF0022082223F00F0329
S31508014E5043EA000343EA850343EA02032E4A304D37
S31508014E60136237D194F82430916A94F82000DB0054
S31508014E700D4043EA401394F821102B4343EA0113EA
S31508014E8043F480339362274B916D33EA0101FBD1D9
S31508014E904FF08071214881621369A56823F4700374
S31508014EA043EA055313614FF00043836194F82230B6
S31508014EB00BB91D4B996294F823301BB94FF4803214
S31508014EC0194B9A6294F825301BB1134B174AC3F84C
S31508014ED0802038BD022808D11161154891614FF427
S31508014EE008524FF47F411EF080FA0B4994F822309C
S31508014EF08A6A94F820001B06154043EA401394F881
S31508014F0024202B4343EAC20394F8232043EA0243AD
S31508014F108B62D7E7009000500040005A0050005AB3
S31508014F20C7FFFEFE030001000060005AF1A7FFFF5C
S31508014F303440005A37B5194CA26AA36D13F4803F61
S31508014F4018BF4FF48031164B18BF99624FF0807124
S31508014F509962144BA56993F9003025F47F0503443A
S31508014F60000280B225F47F4583F30803284340EA0B
S31508014F700340A0610C4801921EF037FAA36D019A0D
S31508014F8013F4803F07D04FF48031074803B0BDE8DA
S31508014F9030401EF02ABA03B030BD00BF0040005AA7
S31508014FA00050005AA30D00202840005A014B93F9DE
S31508014FB000007047A30D0020F0B5D0E901434FF476
S31508014FC000061A4A4178057856664FF4D1560227E3
S31508014FD002F5B8325662164E4F2977604FF001072F
S31508014FE028BF4F2106F5805677601669F603FCD46B
S31508014FF041EA052151611B01417B43EA04230B4325
S31508015000017B43EA41039360C37B817B1B0143EA2E
S315080150104113417C0B43017C43EA41035360837C82
S3150801502013B16FF4D1535362F0BD00BF0090005025
S3150801503000100250014B1880704700BF8A0D0020EE
S315080150404FF4800208B5184B5A660223174A536073
S31508015050936813F48033FBD1012822D1FEF792FB22
S31508015060134B984215D003F5122303F5F8639842BA
S3150801507013D0104B00EB8002400AB3FBF0F0520A42
S315080150800A4BDA62012218635A620022074B5A60F8
S3150801509008BD45F67A10084AF2E745F61A00074AA6
S315080150A0EEE75362F1E700BF00900050004002505E
S315080150B000F0490264666666D8B80500BBCF0500EC
S315080150C0B0F5207F10B50C4657D008D8B0F5007F4B
S315080150D048D003D830B3B0F5C07F23D010BDB0F5A2
S315080150E0607FFBD129492A48D1F8FC2012F0807249
S315080150F01EBFD1F8FC3023F08073C1F8FC30D0F81C
S315080151008030611E23F0300444EA0114C0F880405F
S31508015110002AE3D01D4AD2F8FC3043F08073C2F866
S31508015120FC30DBE71EF072F91EF07EF94FF4803190
S31508015130184B174A1967136F611E23F4704444EA22
S3150801514001341467FEF708FB0446FFF75DF9C0F161
S31508015150020120461EF062F900F02EF8BDE8104063
S31508015160FFF7D2BC0A4A0139D2F8903023F0F85435
S3150801517044EA0164C2F89040B0E7054B013C196F57
S3150801518021F4806141EA84241C67A7E700ED00E069
S31508015190008000500090005008B50121022000F05F
S315080151A075F81EF033F91EF03FF94FF48032014BC2
S315080151B01A6708BD0090005008B54FF4C070FFF794
S315080151C0A5FBBDE80840044988428CBF022101219C
S315080151D04FF42070FFF774BF80F0FA02054B4209BD
S315080151E053F8223000F01F0023FA00F0C04300F004
S315080151F00100704700E100E0024A536B0342FCD10B
S31508015200704700BF00400950044A4178536F23F4A0
S31508015210407343EA01235367704700BF00400050BB
S315080152200A4A10B51369044643F00403136103F0EF
S31508015230E9FE1EF023F930BF1EF021F903F0F6FE50
S315080152401CB9BDE81040FEF787BA10BD00ED00E0B5
S31508015250084A10B51369044643F00403136103F0C1
S31508015260D1FE30BF03F0E2FE1CB9BDE81040FEF7DF
S3150801527073BA10BD00ED00E0034A0179D36E23F03D
S3150801528030030B43D366704700400050F8B5044617
S315080152901C4BD3F88420D106FBD4D3F88430C3F34E
S315080152A081139C422CD0FEF73DFA012C064602D109
S315080152B021461EF0B3F81EF0D1F84FF00072124BDA
S315080152C007465A6620461EF0DDF84FF480630D4DF9
S315080152D0621E93402B676B6E9A0103D4D5F884300E
S315080152E09B060AD538461EF0BDF8022C08D1304671
S315080152F0BDE8F84000211EF091B8D5F88430EAE7F8
S31508015300F8BD00BF004000500060005007B518B94D
S315080153100191FEF707FA0199064B1B7843B1064B33
S31508015320984205D8012003B05DF804EBFFF7AEBF3C
S315080153300220F8E71A2B0020005A62020278034B72
S31508015340012100201A70FFF7E1BF00BF1A2B0020C8
S315080153504FF00042154B10B55A664AF6CD3314493B
S315080153604C6C0B6404F0010488B90120FFF744FF73
S315080153704B68DB0704D50F4B58600B6BD807FCD578
S3150801538014B10B4B0C4A1A6428F0FEFC10BD0B6BCA
S315080153901A07FCD42022074B9A620122A3F58053EF
S315080153A05A60034A936A9B06FCD5E9E700900050C8
S315080153B000400950006009503254FFFF4FF0004287
S315080153C038B5164B01465A664AF6CD33144C154A7A
S315080153D0656C236443780B205B0043F00103D363B8
S315080153E0FFF70AFF63688A7823F4F87343EA02131E
S315080153F06360CA784B7943EA0223A3600A798B79F9
S3150801540043EA022323610878FFF7A2FFEB0744BFAB
S31508015410054B236428F0B8FC012038BD00900050E4
S3150801542000400950004000503254FFFF4FF000423F
S31508015430124B70B55D6E03F580535A664AF6CD3345
S3150801544004460F4980204E6C0B64FFF7D5FE0B6AA4
S3150801545023F00F030F2C94BF234343F00F030B6272
S31508015460F30744BF074B0B64002DA2BF4FF0004260
S31508015470054B5A6628F088FC70BD00BF00800050B5
S31508015480004009503254FFFF00A000504FF000427F
S31508015490104B70B55D6E03F580535A664AF6CD33E7
S315080154A004460D4980204E6C0B64FFF7A5FE0B6A76
S315080154B023F4F85343EA04230B62F30744BF074B6B
S315080154C00B64002DA2BF4FF00042054B5A6628F027
S315080154D05BFC70BD00800050004009503254FFFF4C
S315080154E000A0005010B51DF0D2FF042300F580512D
S315080154F000F500520B6113610B6113610B611361B6
S315080155000B611361202341F2020103610023C36089
S31508015510836041614FF4A021836183654162054936
S31508015520C36103628362C36243630365D164036330
S3150801553010BD00BFFF3F0D03F8B5054614460846E2
S3150801554041B9344B9D422FD0334B9D4208BF57205A
S31508015550FFF7DCF9AB68DE072ED5B0FBF4F46E680D
S31508015560013C16F0010625D0282128461DF08BFF9F
S31508015570AB6C99071AD1AB6CDA0719D4AB6C13F07B
S31508015580020F0CBF0027062728461DF080FF286951
S3150801559020F07F4040EA04642C61DEB13946284692
S315080155A0BDE8F8401DF0AABF5620D1E70527EBE76D
S315080155B00927E9E73746EAE76B68AB6DAF68DB07AA
S315080155C007F0E00748BF6400402F1BD003D8DFB1BE
S315080155D0202F1BD0F8BD602F1AD0802FFAD10126B3
S315080155E004FB06F34101B1FBF3F30C4A203B02EA43
S315080155F0C302284601211DF046FF2A63BDE8F8408B
S315080156001DF041BF0626EBE71026E9E70826E7E77E
S315080156100426E5E70000015B00000A50F8FF7F0059
S31508015620F8B51E46436804460D4617461BB140F6B3
S31508015630FF711DF028FF2046FFF754FFE9896B7BB0
S3150801564062690B43298A22F44C520B4322F00F025A
S3150801565013436361A2682B7E297B22F0804222F0E4
S31508015660E202194311436A691143AA68A1601AB98A
S31508015670A26842F00042A260E869002860D0A268E8
S31508015680017A42EA8152A260A268817A42EA4142DB
S31508015690A2608288A16802F4C0420A43A260A26895
S315080156A0417842EA8102A260A268417B42EAC102CC
S315080156B0A260A268817B42EA0112A260A26881788F
S315080156C042EA8122A260C2798179520242EA8122A2
S315080156D0E260027802F0FD01012908BFE168A2F142
S315080156E0020204BF41F00401E160012A5E495F4AF2
S315080156F076D88C4272D05E498C420CBF01214FF09C
S31508015700FF3102EB411241F294414FF0020C42F88B
S3150801571001C0427A04F580518A621AB1E26842F4FC
S315080157200062E260C27A5AB1E26842F40042E2607B
S315080157304D4A944263D1027B4E4902F00F024A67F1
S3150801574047B197F8202004F5805C002A61D0012230
S31508015750CCF820207EB304F5805013B14FF40043F2
S31508015760836596F82120404B102A434961D89C420B
S315080157705DD03F4B9C420CBF01234FF0FF330127FD
S31508015780CF54768C3849B6F5006F3C4B5FD88C42BE
S315080157905BD037498C420CBF01214FF0FF310127FD
S315080157A05F54A36D324323F4F95323F01E031343C5
S315080157B0A36501238365052120461DF082FEAA689B
S315080157C012B16968FFF7B8FE204629781DF096FEE2
S315080157D0A36CDB4313F4405FFAD1F8BD002190E7CF
S315080157E08C420AD022498C420CBF01214FF0FF316D
S315080157F002EB411242F2944187E70021F8E71C4A7D
S31508015800944201BF027B1B4902F00F02C1F88020B6
S3150801581096E797F82210E06997F821200A4320F0C5
S3150801582009010A4342F00102CCF81C2092E7002341
S31508015830A5E79C4207D00E4B9C420CBF01234FF0B3
S31508015840FF3302279CE70023FBE70021A7E78C42E9
S3150801585007D007498C420CBF01214FF0FF310227BF
S315080158609EE70021FBE700BF0000015B00C0035073
S3150801587000000A50009003501D2B00201B2B00200E
S31508015880436870B504460D460E691BB140F6FF71B3
S315080158901DF0F9FD2046FFF725FE22696B7BA97BE2
S315080158A022F087020B43134343F08003236116B3A7
S315080158B02A692369117823F0F8030B43117F43EA18
S315080158C0C113117943EA4113517A43EA0113D17B92
S315080158D043EA81132361E168D2E9053021F0F041F9
S315080158E021F4702103430B43117B527B43EA812345
S315080158F043EAC233E360A368EA7B23F00303134355
S3150801590043F00103A3602EB32A69A168538803F4FF
S31508015910C0430B43A3605179A36843EA8123A3607B
S315080159209379D079616A1B01000203F0700300F4D0
S31508015930E06021F4772121F4EE6103430B43117AE8
S31508015940527F090301F4E04112040B4302F4702269
S315080159501343636263692A7B23F00F03134363616D
S31508015960B6B12B695A89A2615A7B3AB11D4A94424A
S3150801597024D19A7B1C4902F00F024A67DA7B3AB1B5
S31508015980184A944224D11B7C174A03F00F03136764
S31508015990D5E901122046FFF7CFFD052120461DF066
S315080159A090FD28211DF06FFD2B78A3631DF06BFD7B
S315080159B0A36CDB4313F4405FFAD170BD0B4A9442E2
S315080159C001BF9A7B084902F00F02C1F88020D5E78A
S315080159D0064A944201BF1B7CA2F5CE2203F00F03AF
S315080159E0D367D5E70000015B0090035000000A5019
S315080159F0072AF7B501F0030614461F464FF00301BF
S31508015A002CD89500A94000FA05F21C4801911DF011
S31508015A108FFD01991A4806FA05F21DF089FD194B01
S31508015A2019499DF82000002F08BF1946012303FADA
S31508015A3004F40C60154B1649002808BF0B461C6078
S31508015A40144B9DF82400C3F820441031A3F6DC3327
S31508015A50002808BF0B461C6003B0F0BDA2F108057B
S31508015A60AD00A94000FA05F20B4801911DF060FD51
S31508015A7001990A4806FA05F2CFE700BF00C40350A8
S31508015A8008C4035010E4035010D4035014D403502F
S31508015A9014E4035000E0035004C403500CC403503B
S31508015AA02DE9F04105460F461E4690464AB10123A7
S31508015AB03022194C8B4002FB00443EB304F5825454
S31508015AC023600F21072F05EB450388BFA7F10804BB
S31508015AD04FEA0313114895BFBC00A40004330C33E5
S31508015AE008FA04F2A14018441DF022FDB8F1000F8E
S31508015AF00AD101213020084A01FA07F700FB0522DD
S31508015B003EB102F582521760BDE8F08104F50154F1
S31508015B10D6E702F50152F6E700C0035030C003503C
S31508015B20F8B505460E4614465AB3826803F00307CC
S31508015B3022F4407282601DF091FCAA6882EA07236A
S31508015B4003F440735340AB601DF08CFC36B9B5F1D4
S31508015B50B64F17D12E20FEF7D9FE0646AB680C4B79
S31508015B60D85D60430DD06FEAC4040444A319B3FB9E
S31508015B70F0F3AA68013B920702D5002B08BF01235F
S31508015B80AB61F8BD034B9D42E8D12F20E3E700BF87
S31508015B9098F303080080065038B500230E4A0364BB
S31508015BA000F50053DA634A7804460D4600F1080306
S31508015BB07AB903F5805302221A602046D5E9011203
S31508015BC02B7BFFF7ADFF20462978BDE838401DF04D
S31508015BD0C0BC03F50053EEE7FFFF1F00B0F1B64F57
S31508015BE02DE9F04322D0804B984240F0FA807F4B52
S31508015BF0402505264FF000084FF0030C996800F57B
S31508015C000054C26B12F4C06F16D0970510D5FD2249
S31508015C105A7009221A700022026493F901100129A7
S31508015C2000D15A7093F90100BDE8F083704BDFE7A4
S31508015C305605EED5FE22EBE71F78082F00F2CD8038
S31508015C40DFE817F009001F0041004C0069007400E5
S31508015C5096009E00C2004C880A88E5060AD5120AF3
S31508015C6002F0060242F0F002012119704263C16096
S31508015C700120D9E702F0FE02A10748BF42F001025E
S31508015C80F2E7170607D5802100F50052D1634FF6D2
S31508015C9008721A8062E05206EAD54A88E563D70691
S31508015CA004D502221A700B784363E1E7920765D59A
S31508015CB007221A701B7901EBC3010B89012BD7D176
S31508015CC00823C360D4E71706DDD45206D0D54A881F
S31508015CD0E563970752D583F800C092E74C880A888E
S31508015CE0E50643BF120A02F0060242F0F00202F08C
S31508015CF0FE02640709D51C7942F0010201EBC401D1
S31508015D000989012904BF0821C160042119700123E9
S31508015D10C3604263ACE71706B5D45706A8D54A88C7
S31508015D20E56352072AD507221A70A1E71A795F880F
S31508015D3001EBC20EBEF80890B94511D80132D2B2AC
S31508015D401A714F88A3F8028017F0040FC3D1FF0711
S31508015D5002D4012A7FF655AF08221A700223B0E74A
S31508015D60DEF80420791C5980D25D42630622DBE7FE
S31508015D70170688D457067FF57BAFE5631E7040E7A3
S31508015D8094067FF575AF20261A7900F5005401EBC4
S31508015D90C2010A89456AE6635C88A24281BF4968ED
S31508015DA0661C5E800D5559888A42D5D90424012A74
S31508015DB0C46004D9013A914201D10822C2601A7815
S31508015DC0092A3FF428AF53E7D2057FF551AF4FF4BF
S31508015DD0807100F50052D1631BE74FF609321A802C
S31508015DE019E76FF003001FE700800650201E002008
S31508015DF0141E0020B0F1B64F10B407D01A4B9842C2
S31508015E002ED06FF003005DF8044B7047174B0269FB
S31508015E10D20744BF2022C2604A88940702D50C895A
S31508015E20002CEED0520702D50A8A002AE9D04FF48F
S31508015E3080721A60002299601A71C023C36043698F
S31508015E40DB050FD4202200F50053DA63084A5DF812
S31508015E50044BDA63036C43F4FC630364FFF7BEBEC9
S31508015E60044BD4E7436AEAE700800650141E002073
S31508015E70FFFF1F00201E00204FF400120B4B10B528
S31508015E80C3F88020BFF34F8FBFF36F8F0024FF2223
S31508015E90074B21465C6520209A625C60FEF71AFD75
S31508015EA02146BDE810402120FEF714BD00E100E0BF
S31508015EB000000450044A054B002918BF1346012265
S31508015EC002FA00F018607047402004504010045050
S31508015ED010B5012104462020FEF7FCFC01212120F2
S31508015EE0FEF7F8FC0122114B5A60227812069A60D5
S31508015EF06178A27842EA01429A61FF229A620022F7
S31508015F009A631A644FF000425A654FF0FF324FF414
S31508015F10001103F500531A65054AC2F88011E378A2
S31508015F201B01DBB282F81533116010BD0000045065
S31508015F3000E100E02DE9F0410125C3B2D1F8008066
S31508015F4091F80AC00F7B91F80DE09D400C46CB7A7B
S31508015F501C491D4E0D65810001F1A04101F58821FD
S31508015F60C1F80480302101FB00601B0543EA0C439C
S31508015F7043EA475322F00302C0F860E0C3650267AB
S31508015F801DF073FA736D2B437365237A13B1336C62
S31508015F902B433364637A13B1B36B2B43B36322790F
S31508015FA0A37943EA0243074A93616179E37943EAAC
S31508015FB0014306498B61044B55639D64BDE8F04175
S31508015FC01DF059BA00200450000004500010045076
S31508015FD010B50124C0B284401DF047FA044B5A6D2E
S31508015FE022EA04025A659C62BDE810401DF043BAD4
S31508015FF00000045010B50124C0B284401DF035FAE2
S31508016000074BDA6A224209D15B6B34EA03030CBFF8
S31508016010012400241DF02FFA204610BD0024F9E7BB
S31508016020000004504FF48032054B9A6641F67132EE
S3150801603003F51C33DA63012203F50053DA6070476E
S315080160400090005041F671320121064BDA6303F5DF
S315080160500052D1600022DA634FF48032A3F5183377
S315080160609A667047000003504FF48032064B5A6611
S3150801607003F5E6239B69C3F38512827003F03F0299
S315080160801B0B4270037070470090005040F6B73200
S31508016090064B5B689BB293429FBF4FF47A72B3FB80
S315080160A0F2F3034AD05C88BF002070470080E00FF6
S315080160B09CF3030830B5174CA0421BD004F5804465
S315080160C0A04219D004F58044A04217D004F58044B3
S315080160D0A04215D004F58044A0420CBF04204FF01D
S315080160E0FF3006250C4C6BB105FB001004EB800054
S315080160F0826430BD0020F4E70120F2E70220F0E7D0
S315080161000320EEE705FB0010120204EB8004A264EB
S31508016110EFE700BF0080045000810350054B9A68E1
S315080161209107FCD45A689207F9D4DA69002AF6D19C
S31508016130704700BF00800A5008B5FFF7EFFF01223C
S31508016140024B03F580514A601A6108BD00800A5066
S31508016150074B5A68012A0AD15A68D20702D5DA6961
S31508016160002AF9D102221A610122024B5A607047AC
S3150801617000800A5000A00A5010B5064CFFF7CEFF62
S315080161806368012B03D1FFF7E3FFFFF7C7FF037826
S31508016190E36010BD00800A50E8B94A680B7812B16D
S315080161A0127843EAC2034A78002A14BF022200225F
S315080161B013438A6812B1127843EA82138A78002A4D
S315080161C014BF042200221343CA6812B1127843EAA3
S315080161D04223014A9364704700800A5008B9014B6B
S315080161E05964704700900A5008B9014B59647047C1
S315080161F000A00A5008B9014B1964704700A00A505B
S3150801620010B9024B186C70470020704700800A507D
S3150801621048B911B1012903D07047044BD86C7047AE
S31508016220024B186D70470020704700BF00800A5066
S3150801623040B911B1012903D07047034BDA6470479D
S31508016240014B1A65704700BF00800A5038B50446ED
S31508016250054D27F0BFFD0FCC0FC594E8030085E86F
S315080162600300002038BD00BF2C1E002047F6FF732F
S315080162709A42F0B567D0012967D8354DCF0015F890
S31508016280313005EBC100012B847813D10025C37881
S315080162901B1B9D4202D3E018C0B2F0BD591B4668CC
S315080162A0A3EB510136F911609642D4BF0D4601F1AF
S315080162B0FF33EEE740680028EFD0B0F9003093428B
S315080162C004DBB0F902309342B8BF134682883D44D5
S315080162D0FF2A19BFC8214FF0280CB0F90610B0F9EA
S315080162E008C0A1EB03020CBF0126002692FBFCF2B3
S315080162F06D78324412B2954201DD002A01DA6A1E2E
S3150801630012B24FF47A7700EBC206F188B668013209
S3150801631013FB016112B221EAE17101F5FA719542A5
S31508016320B1FBF7F104DD00EBC206B6888E42EAD26C
S3150801633000EBC20232F8040C884228BF0846A04284
S3150801634038BF2046A8E7FF20A7E70020A5E700BF3A
S315080163502C1E00200129F0B553D82B4800EBC104A7
S3150801636010F83110636801290FD1E078A4789042BA
S3150801637094BFC4EB0001C4EB0201001BCAB28242FE
S31508016380C8BF002233F91200F0BD002B39D0A1781D
S31508016390914202D3B3F90200F6E7E178B3F90000B6
S315080163A09142F1D999886478A1F1FF06013C7142BD
S315080163B003F10405E4B2714103F10C071FFA82FCEB
S315080163C0CEB2B44216D805EBC1014FF47A756A43C9
S315080163D0B1F902404968521A04EBD47102EB610221
S315080163E092FBF4F29042CFDBB3F902009042CBDC88
S315080163F010B2C9E737F831E04E1CE645E3D331461A
S31508016400DEE70248C0E700BF2C1E00200080FFFF20
S315080164100148FFF71BBF00BFA0F3030800487047F8
S315080164208C0D00207FB50222084B0949CDE90123CD
S315080164304FF00073CDE90313072301A94FF0FF308D
S31508016440059327F0FFFC07B05DF804FB006A180006
S315080164500002060008B5B0B14FF480620B4B9A668C
S315080164601DF09EF84FF098435A6CD202FCD54FF4B2
S315080164708062586D064B10F470209A6604D0BDE808
S3150801648008401DF057B9212008BD00BF00900050F3
S3150801649000A000502DE9F0418CB08846DDE912765E
S315080164A01D460446002847D0002945D0002F43D071
S315080164B0002E41D013F00F033ED120482049A36096
S315080164C0002A18BF0146E361C4E90013404609A939
S315080164D01DF024FA68BB204609991DF058F829468B
S315080164E020461DF054F86946404600F0E7FA00BB1D
S315080164F0694620461DF037F8404603A91DF0DCFA27
S31508016500B8B9204603A91DF02EF80697012720469B
S3150801651045F0005506A9079708951DF024F8204669
S3150801652009A909960A970B951DF027F82046FFF742
S3150801653091FF0CB0BDE8F0812120FAE700010104C2
S31508016540000100042DE9F0438DB0884615461C4626
S315080165500746DDF85090002850D000294ED0002A71
S315080165604CD0B9F1000F49D00B68103B102B45D818
S31508016570012606FA03F303F0013323F08073002B97
S315080165803CD000231E4A8360C0E90023C36109A9E0
S3150801659040461DF0C3F970BB384609991CF0F7FF50
S315080165A0214638461CF0F3FF6946404600F086FA54
S315080165B008BB694638461CF0D6FF404603A91DF0BC
S315080165C07BFAC0B9384603A91CF0CDFF44F0005444
S315080165D0384606A90695079608941CF0C4FF094B88
S315080165E0384609A9CDF824900A960B931CF0C5FFE5
S315080165F03846FFF72FFF0DB0BDE8F0832120FAE7F3
S315080166000000040410000020F0B50C4617461E468B
S31508016610054695B0002874D0002972D0002A70D09A
S31508016620002B6ED0036B0F2B5BD80023364A3846F6
S31508016630C4E90023A360E36111A91DF06FF90028DD
S315080166405BD1204611991CF0A2FF296B20460F2920
S3150801665084BF01F00F0110311CF099FF384602A9D9
S3150801666000F02CFA002848D1204602A91CF07BFF2D
S31508016670384605A91DF020FA00283ED1204605A96D
S315080166801CF071FF0122214B089509920A932B6B85
S3150801669005F1100003F00F0141F000510B900F2B8B
S315080166A00C920D910E900F9243F00052109226D93A
S315080166B00A9B08A923F0005320460A931CF053FFAE
S315080166C00BA920461CF04FFF0123119612930F4B7D
S315080166D0204611A913931CF050FF2046FFF7BAFE76
S315080166E00BE000F1200301900093012210233946A3
S315080166F02046FFF7CFFE002897D015B0F0BD0EA9AA
S31508016700DFE72120F9E700BF00000404100000209C
S315080167102DE9F04F9BB00D46914698460646DDF8A1
S3150801672090A0002800F0B380002900F0B080002A6C
S3150801673000F0AD80002B00F0AA80026B02EB0A0381
S315080167401B09B3EB121F02F00F0700F09880002314
S31508016750504A8B60C1E90023CB61484617A91DF051
S31508016760DDF80446002840F0868007EB0A0323F08B
S315080167700F0B2846179900931CF009FF594628461E
S315080167801CF005FF484602A900F098F904460028BE
S3150801679071D1284602A91CF0E6FE484605A91DF056
S315080167A08BF90446002866D14FF00109284605A948
S315080167B01CF0D9FE384A284608A90896CDF824902F
S315080167C00A921CF0D0FE47F00051ABEB070706F121
S315080167D0100347F000570B93CDF830900D91CDF883
S315080167E03880CDF83C9010970D99284621F0005134
S315080167F00D910BA901931CF0B6FE28460EA91CF0B3
S31508016800B2FEABF11001244A41F000511194CDF8C2
S315080168104890139106F120011491CDF854901692DF
S315080168201399284641F080411391139921F000519B
S31508016830139111A91CF0A1FE284614A91CF09DFE6E
S31508016840154A17A928461796CDF8609019921CF093
S3150801685094FE2846FFF7FEFD009B0446ABEB0301B9
S31508016860A3EB0B02019B51441846414427F086FECF
S31508016870336B5344336320461BB0BDE8F08F1030A9
S3150801688052464146384427F079FE0024F0E7212490
S31508016890F1E700BF03020004100000202DE9FF47BD
S315080168A000230E4617460446009300285BD00AB11A
S315080168B0002958D037F0030807F0030A25D04FF00E
S315080168C000094FF0E063C4E9003901230196204627
S315080168D0029301A948F00053C4F80890C4F81C9023
S315080168E003931CF04AFE414620461CF050FE204602
S315080168F0FFF7B0FD054640B142464946304627F006
S3150801690064FE284604B0BDE8F0874FF00009BAF1E5
S31508016910000F2AD04FF0E063C4E900390123CDF80E
S3150801692004D00293124B204601A9C4F80890C4F872
S315080169301C9003931CF021FE042120461CF027FE1F
S315080169402046FFF787FD054608B13A46D5E70346CF
S3150801695000994644DA00013321FA02F29A4506F80B
S31508016960012BF7D1CDE72125CBE75546C9E700BF6E
S3150801697004000020F0B50F4616461D46044693B09E
S3150801698010B9212013B0F0BD0029FAD0002AF8D099
S31508016990002BF6D0002331461A4638461CF073FF01
S315080169A00028EFD1304602A91CF003FF0028E9D1DF
S315080169B0EB68022B0AD039683F48029A81426B6913
S315080169C002D01830814270D19A42DAD82B68002B4E
S315080169D0D7D14FF060623846C4E90023A360E3616A
S315080169E001A91CF09BFF0028CCD10199204621F46E
S315080169F0F06101911CF0CBFD694628461CF08EFF1B
S31508016A000028BFD1204600991CF0C1FD384609A9C6
S31508016A1000F054F80028B5D1204609A91CF0A3FDB9
S31508016A2038460CA91DF048F80028ABD120460CA918
S31508016A301CF099FDEB684BB1284606A900F03EF813
S31508016A4000289FD1204606A91CF08DFD304603A9D2
S31508016A501DF032F8002895D1B368DA040CD59B04E9
S31508016A6027D50621F36932691B6801FB03225B00FE
S31508016A7043F0005303920593204603A91CF073FDC6
S31508016A8028460FA91DF018F800287FF47BAF204689
S31508016A900FA91CF072FD03252046FFF7DBFC012830
S31508016AA07FF470AF013DF7D16CE7B3EB420F8DD29E
S31508016AB067E7292066E700BF200000B0A0B199B1B9
S31508016AC001234B60C368013B012B0AD88069074B38
S31508016AD018B1086000208B607047054A0A608B6010
S31508016AE070474FF00053F5E7212070470800002052
S31508016AF03805040870B50E46154604468AB00028BE
S31508016B005BD0002959D0002A57D0012329461A46B5
S31508016B1030461CF0B8FE00284DD1B36813F4C04FB7
S31508016B204BD0AB6803F4C043B3F5005F45D1254BA1
S31508016B30A060C4E90030E06107A930461CF0EEFE0A
S31508016B40002838D1204607991CF021FD304601A9B5
S31508016B50FFF7B4FF78BB20461CF005FD304604A9B3
S31508016B601CF0AAFF38BB204604A91CF0FCFCEB6804
S31508016B701BBBAB6803F4C043B3F5005F1DD169467F
S31508016B8028461CF047FEB0B9009B6A699A4216D39B
S31508016B902A6943F0005307920122204607A9089261
S31508016BA0032509931CF0E9FC2046FFF753FC01284D
S31508016BB001D1013DF8D10AB070BD2120FBE71D20A6
S31508016BC0F9E700BF0000010205289ABF014B185CCE
S31508016BD0002070474005040830B5154B87B002936D
S31508016BE0144B0390049346F611030D46059300F0E2
S31508016BF06DF91428044616D168461DF02EF94FF092
S31508016C00A843032202A95A6319601D619A63DA6BC4
S31508016C109207FCD1142C02D168461DF02CF900F01C
S31508016C2089F9044601E00028E9D0204607B030BDBD
S31508016C30441E0020040000202DE9F04FB1B005469E
S31508016C408C46E9466E4F3B9EDDF8F8E0409C07F11D
S31508016C50100AC846386879680837A8E8030057450E
S31508016C60C146F6D10EEB0208C8F1000909F00F0971
S31508016C70002E00F0AF80774207F00F070121DDF8FB
S31508016C80FCB0C4F1100ACDF810B0059144F00051DA
S31508016C9006914FEA0A2101F4F85141F021010791C1
S31508016CA006B96B460893002D40F09680002C00F03B
S31508016CB0938004AB0993002E00F0908046F00053B0
S31508016CC00A93002D40F08D80002C14BF0123212347
S31508016CD043EA07230B9308A942F00053CDF830C0C5
S31508016CE03D980D910E934FEA092343F041030F9303
S31508016CF0109002B10CA9002A16BF00224FF00052CB
S31508016D00412342EA0E021191129213933C9B3D4A8A
S31508016D10149310AB15933C4B0021169340F61103BF
S31508016D2017933A4B002D08BF1346189314AB1993C2
S31508016D30374B10221A9311231B931CAB184627F0C5
S31508016D4044FC01221D924AF080421E92002203460B
S31508016D50239205B9EB46102C08BF01230DF1900AC1
S31508016D60102200215046CDF880B02193229427F0B5
S31508016D702CFC002C37D020AB002125938F4218BF5D
S31508016D80534647F0804226923A9A2CA88A4228927C
S31508016D90299313460CBF4FF080430B461022334309
S31508016DA02B912A9327F011FCFEB95346C8442D931B
S31508016DB02CA948F0804318A82E93FFF70DFF30B988
S31508016DC02DB90346A34212D1002818BF2C2031B091
S31508016DD0BDE8F08F102751E701236BE747F0005311
S31508016DE06EE7212374E70123C6E728ABDEE703F143
S31508016DF0C0026A4412F8C02C01331043E2E700BF0F
S31508016E004605040858050408100000205C05040816
S31508016E1004000020F0B5C0299FB0249E4FD0B1F5DB
S31508016E20807F04D0802941D029201FB0F0BD40F2CF
S31508016E30344440F21445002E08BF2C46212710255C
S31508016E40019401240296039404950597259F0697B4
S31508016E5006B102AC07940124089509940A922122E5
S31508016E600B940C950D92174A0AAC0E92164A0F947A
S31508016E70109242F6110211921293139414951592D7
S31508016E8001AA1692CBB112AB1793042318931123B7
S31508016E90199316AB1A901B9340F61103C9081C9156
S31508016EA01AA806A91D93FFF797FEBEE7002E14BF81
S31508016EB04FF486644FF48264C0E70EABE4E70F2013
S31508016EC0B3E700BF600504081000001038B5164B7B
S31508016ED05A6E42F004025A66D3F8802242F0010241
S31508016EE0C3F88022114B5B68C3F3080343B14FF023
S31508016EF0A842D36B13F0430FFBD11424204638BDA7
S31508016F004FF0A843DC6B14F04304FBD1084D2B6802
S31508016F101BB90421284602F0A7FF2B68013343F069
S31508016F2000432B60EAE700BF0080005000ED00E057
S31508016F30441E0020014B00205B68704700ED00E00D
S31508016F40012300F01F02A0F506200949A0F55060AB
S31508016F504009934051F820201A4341F82020054959
S31508016F6051F8202022EA030341F82030704700BF78
S31508016F70481E00205C1E00200121A0F506230F4AA9
S31508016F80A3F550635B0900F01F0001FA00F052F8FF
S31508016F90231008430A4942F82300D1E90030034483
S31508016FA088680344C868096903445B1802BFC2E9D3
S31508016FB00033C2E902331361704700BF5C1E00202B
S31508016FC0481E00202DE9F04FA9B002921F46DDE9BF
S31508016FD0328904460822CDE90301414021FA02F328
S31508016FE04B40980702F1080218BF9B00202A1C444F
S31508016FF0F4D18123B4FBF3F303EBC313E41A784BFF
S3150801700004F506241B7804F55064002B3CD1FDF7E2
S3150801701081F9014620B16FF0910029B0BDE8F08FE2
S315080170204022059008A827F0D0FA4022059918A809
S3150801703027F0CBFA6B4EDFF8C4A1334603F10F0BE9
S31508017040102208A9DAF80000CDF800B0059326F059
S3150801705081FC00220146059B103608AD914244D1B8
S31508017060CDF800B01022DAF8000018A926F07BFC4A
S315080170704FF0000B034618AD5B4542D15A4B9E4271
S31508017080DBD10122564B1A7081250026DFF86CA147
S31508017090A4F50623554AA3F550635B0952F8232044
S315080170A004F01F01CA40D2073ED4514A52F82300C0
S315080170B0C84010F001002DD0002E08BF26468123B6
S315080170C0A4F50724A4F2FF44B4FBF3F303EBC313BB
S315080170D0E41A04F50624013D04F55064D8D1029B4F
S315080170E0D3B1CEB1349B1E6063E055F8040BCDE9EC
S315080170F006230591FFF724FF069A079B0599013296
S31508017100ACE755F8040B05930BF1010BFFF734FFB8
S31508017110059BB1E7029B13B96FF08B007DE7349BA2
S31508017120002E45D01E6078E7B8F1000F02D0002383
S31508017130C8F80030B9F1000F02D00023C9F80030B1
S315080171404FF0100B00233A462146DAF80000CDF835
S3150801715000B013F033F870BBB8F1000F01D0C8F8CE
S3150801716000B03B68234A93422FD1B8F1000F11D0E2
S31508017170B9F1000F0ED04B462146DAF8000018AADD
S3150801718013F070F8B8B9D9F80030D8F800209B1A6E
S31508017190C9F80030D7E90223DDE90310834208BFA5
S315080171A08A428CD1029B13B17B68012B15D0349B83
S315080171B01C60002031E7104B984206D012339842E2
S315080171C003D0133B9842E5D025E72146DAF80000BB
S315080171D013F08EF80028DDD09EE76FF084001CE7D7
S315080171E01F2B0020006D080000710800481E0020B2
S315080171F05C1E0020105D175EFFDF00F0700B00209B
S315080172002DE9F04F87B08246894698461646DDF83D
S3150801721040B02AB1002B4ED040F26C739A424DD839
S31508017220BBF1010F4DD8002406F11007394601209C
S3150801723005941DF09DFD0546002845D021463A4690
S3150801724027F0C3F905ABCDE9014300942B4601228A
S3150801725050464946FFF7B6FE044680B110F18C0F39
S3150801726008BF6FF08D043A460021284627F0ADF98C
S3150801727028461DF08EFD204607B0BDE8F08F144B59
S31508017280C5E902A92B60C5F804B02EB132464146BC
S3150801729005F1100027F072F90E483B462A46059972
S315080172A0006812F0F3FE18B90598FFF749FEDAE708
S315080172B06FF09104D7E76FF08604DCE76FF091046D
S315080172C0D9E76FF08504D6E76FF08C04D3E700BFE2
S315080172D0105D175E700B00202DE9F0438DB08146D5
S315080172E0DDE914780C4615461E469BB1B8F1000F28
S315080172F005D16FF0860420460DB0BDE8F083002F56
S31508017300F7D0B7F1005FF4D3C3F1005303F5802337
S315080173109F42EED81022002108A827F056F900222C
S3150801732007AB029305AB019306AB2146009348468A
S3150801733008ABCDE90522FFF745FE04460028DAD158
S315080173400599DEB1A94203D80029D2D115B1D0E7F2
S315080173500029FBD0491BB14228BF3146069B094883
S31508017360C8F8001000913A46079900682B4412F0B4
S3150801737025FF002818BF6FF09104BCE7A942E9D29E
S31508017380B7E700BF700B002030B58DB00C46054637
S315080173901022002108A827F018F9002207AB02934A
S315080173A005AB019306AB21460093284608ABCDE908
S315080173B00522FFF707FE0446D0B9099B012B1AD00F
S315080173C0104B0799186812F093FFB8B9012207986C
S315080173D00D49A0F50623A3F550635B0900F01F05C7
S315080173E0AA4051F823506A4041F82320FFF7C4FD0B
S315080173F020460DB030BD6FF08404F9E76FF09104B3
S31508017400F6E700BF700B0020481E0020134B984278
S315080174101BD010D8124B984205D020F48070A3F5E2
S315080174208063984216D10B88B3F5105F0CBF002014
S315080174306FF0850070470B4B9842F4D08EBF0A4B0C
S3150801744020F48070A3F50073EBE742F204030A887F
S315080174509A42EBE76FF08500704700BF0001800490
S31508017460004440040012C0040013C0042DE9F04F83
S3150801747093B09346DDE91E759846DDE91C238146DE
S315080174808A46209E29B96FF08604204613B0BDE8C6
S31508017490F08FBBF1000FF6D00FB9002DF3D10AB961
S315080174A0002BF0D116B9219B002BECD1229B002B86
S315080174B0E9D049464046FFF7A9FF04460028E4D12A
S315080174C00146202202A827F080F8202221460AA890
S315080174D027F07BF802A81CF05DF900283DD15A4631
S315080174E0514648460AAB00F063F904460028CCD158
S315080174F00A981CF02EFD04460028C6D115B9229B10
